:100000001701088013010100970100809381817F0F
:1000100097020080938202FF17030080130383FE80
:100020009773000093830329638C620003AE03007F
:1000300023A0C20193824200938343006FF0DFFE4E
:1000400097020080938202FC17030080130383FB56
:100050006388620023A00200938242006FF05FFF7A
:1000600097000000E780003D9308A00073000000A7
:1000700013060500130510006372C50293072000E4
:100080001307000093060500938717003305E5006A
:1000900013870600E378F6FE67800000130506006C
:1000A00067800000130810006350B8041396250001
:1000B0003306C50013054500930705006358B802D1
:1000C00003A7C7FF83A6070063D6E60023AED7FECB
:1000D00023A0E70093874700E394C7FE9385F5FFCD
:1000E0001306C6FFE39A05FD678000009385F5FFC0
:1000F0001306C6FF6FF05FFC130101FF23202101EF
:100100002326110013091000635EA90A232291001F
:10011000930530009304050063DAA50833792501BF
:100120006306090897700000E78080856308050A68
:100130009307800163DC9706232481001304500099
:100140006F00C00297700000E78080831304640092
:100150009307050093050400130504006388070254
:1001600097600000E780407763C4A4029305040011
:100170001385040097700000E780808093070500D6
:100180009305240013850400E39E07FA1309000079
:10019000032481008320C10083244100130509004A
:1001A0000329010013010101678000008320C100C1
:1001B00083244100130509000329010013010101F3
:1001C000678000008320C1001309000013050900A7
:1001D0000329010013010101678000008320C10091
:1001E00013090000832441001305090003290100BD
:1001F0001301010167800000B777000083A5072B7A
:10020000130101FF2326110023248100130405009C
:1002100097600000E78000279305040097600000C6
:10022000E78040268320C1000324810013010101DF
:1002300067800000130101FF232611009760000072
:10024000E78040248320C100130101016780000082
:10025000130101FE93050000232C810023282101B6
:10026000232E11001309050097600000E780801716
:1002700013040000634005089305000013050900FE
:1002800097600000E780800F1304000063040506F8
:10029000377400008325442B13050900232A91009D
:1002A0002326310197600000E780C01D9304A00061
:1002B0008329442B1304050093050400130509004A
:1002C00097600000E78000D293050400976000006B
:1002D000E780008E9385090097600000E780801A10
:1002E0009384F4FF13040500E39804FC8324410184
:1002F0008329C1008320C101130504000324810167
:10030000032901011301010267800000B777000093
:1003100083A5872B130101FF23261100976000009E
:10032000E7804016B777000083A5C72B97600000D1
:10033000E78040CBB777000083A5072C97600000CB
:10034000E78000878320C10013010101678000005E
:10035000130101FDB7770000232E31019309050039
:100360001385879F2326110297300000E780808441
:100370006358300B2322910223202103232C4101B7
:10038000232A51012328610123267101232481029C
:1003900093040000377A0000377B00001389F9FFCF
:1003A000B77A0000B77B00001304000013050AA110
:1003B0001304140097200000E780C07F638A89023D
:1003C000E38604FEE30499FEB3079400E30089FE8C
:1003D00013858AA163868400638427011385CBA1DA
:1003E0001304140097200000E780C07CE39C89FC84
:1003F00013058BF09384140097200000E780807B26
:10040000E39484FA03248102832441020329010234
:10041000032A8101832A4101032B0101832BC1009F
:100420008320C1028329C1011301010367800000F9
:10043000130101F82328210737790000130589F0FB
:10044000232E1106232C8106232A91062326310709
:10045000232441072322510723206107232E7105FE
:10046000B779000097200000E780C074138509A2C7
:1004700097200000E7800074377500001305C5A4BD
:1004800097200000E780007337750000130505A76B
:1004900097200000E7800072138509A297200000D2
:1004A000E780407137750000130545A997200000CB
:1004B000E7804070377A000013050AAB97200000F0
:1004C000E780406F37750000130610019305A00206
:1004D000130505AD97200000E780C06D377500005B
:1004E0009305B003130505AE97200000E780806CEC
:1004F00037750000930590011305C5AE97200000E5
:10050000E780406B377500009305A02C130585AF7D
:1005100097200000E780006A3775000093052000EF
:10052000130545B097200000E780C06837750000CC
:1005300093058000130505B197200000E7808067D0
:1005400037750000130505B297200000E78080662C
:1005500013050AAB97200000E780C06537750000DF
:10056000130650059305A00A1305C5B39720000094
:10057000E78040643775000093050000130545B51A
:1005800097200000E7800063377500009305F00FA7
:10059000130585B697200000E780C061377500001D
:1005A0009305F00F1305C5B797200000E780806022
:1005B000377500009305802A130505B997200000C0
:1005C000E780405F377500009305A002130545BA28
:1005D00097200000E780005E37750000130585BB9B
:1005E00097200000E780005D13050AAB972000000C
:1005F000E780405CB777000003A6872D83A6C72D50
:10060000377500001305C5BD97200000E780805AAC
:10061000B777000003A6072E83A6472E3775000084
:10062000130585BE97200000E780C058B77700000B
:1006300003A6872E83A6C72E37750000130585BF36
:1006400097200000E7800057B7770000B7760000DA
:1006500003A7072F03A6862F83A7472F83A6C62F9E
:10066000377500001305C5C097200000E78080544F
:10067000B777000003A6073083A647303775000020
:10068000130585C297200000E780C052377500002F
:10069000130585C397200000E780C051377700001D
:1006A000B7770000B77B00000324472C03AB072D6E
:1006B00083AA4B2B9304A0009305040013050B00A1
:1006C00097600000E78000929305040097500000B7
:1006D000E780004E93850A0097600000E78080DA8B
:1006E0009384F4FF13040500E39804FC9760000072
:1006F000E780800F1306050037750000938605001C
:10070000130585C597200000E780C04A37770000B1
:10071000B777000003AB4B2B0324872C83AA472D0C
:100720009304A0009305040013850A00976000005D
:10073000E780408B9305040097500000E780404716
:1007400093050B0097600000E780C0D39384F4FF0B
:1007500013040500E39804FC97600000E780C008DC
:100760001306050037750000938605001305C5C6FE
:1007700097200000E780004437770000B77700003B
:1007800003AB4B2B0324C72C83AA872E9304A00012
:100790009305040013850A0097600000E7808084B9
:1007A0009305040097500000E780804093050B00FC
:1007B00097600000E78000CD9384F4FF13040500E8
:1007C000E39804FC97600000E78000021306050030
:1007D0003775000093860500130505C897200000B3
:1007E000E780403D37750000130545C9972000009C
:1007F000E780403CB777000003A6873083A6C73068
:1008000037750000130505CB97200000E780803A7C
:10081000B777000003A6073183A64731377500007C
:100820001305C5CB97200000E780C038B7770000DC
:1008300003A6873183A6C731377500001305C5CCE1
:1008400097200000E7800037377500001305C5CDFD
:1008500097200000E780003613050AAB97200000C0
:10086000E7804035B777000003A6073283A64732FA
:1008700037750000130585CF97200000E78080338F
:10088000B777000003A6873283A6C732377500000A
:10089000130545D097200000E780C031B7770000EE
:1008A00003A6073383A6473337750000130505D128
:1008B00097200000E7800030B777000003A6873359
:1008C00083A6C73337750000130505D297200000B3
:1008D000E780402EB777000003A6073483A647348D
:1008E00037750000130505D397200000E780802CA2
:1008F00037750000130505D497200000E780802B92
:1009000013050AAB97200000E780C02A3775000066
:100910001305C5D597200000E780C0291304000007
:10092000B77A000093041000130BA00063D884343E
:10093000130700009307200013061000930606001B
:10094000938717003306E60013870600E378F4FE6A
:10095000930504001385CAD71304140097200000E0
:10096000E7804025E31464FD377500001305C5D802
:1009700097200000E780002413050AAB97200000B1
:10098000E7804023B7770000938747F203A307006F
:1009900083A8470003A8870083A5C70003A6070113
:1009A00083A6470103A7870183A7C7013775000006
:1009B000130545DA1304010123286100232A1101DC
:1009C000232C0101232EB1002320C1022322D102B6
:1009D0002324E1022326F102930A04009720000059
:1009E000E780401D93040103B77B000083A50A0044
:1009F00013850BDB938A4A0097200000E780801B59
:100A0000E39654FF130589F097200000E780801AD1
:100A1000130501019305800097F0FFFFE780C06890
:100A200037750000130545DB97200000E78080182C
:100A30008325040013850BDB13044400972000007A
:100A4000E7804017E39684FE130589F097200000A5
:100A5000E780401637750000130505DC972000007D
:100A6000E780401513050AAB97200000E78080144B
:100A700037750000130505DE97200000E78080131E
:100A800013042000130B0000930A20036F00C00022
:100A900013041400630854051305040097F0FFFFC6
:100AA000E780C065E30605FE9305040013850BDBB4
:100AB00097200000E7800010130B1B0013050B00AC
:100AC0009305A00097600000E78080EBE31205FC2F
:100AD000130589F01304140097200000E780800DAF
:100AE000E31C54FB130589F097200000E780800C7D
:100AF000377500001305C5DF97200000E780800BE5
:100B000013050AAB97200000E780C00A3775000084
:100B100093054006130585E52326B10097200000C4
:100B2000E7804009377500009305C100130585E192
:100B300097200000E7800008377500009305C1008A
:100B40001305C5E297200000E780C0068325C10099
:100B5000377500001305C5E397200000E780800586
:100B6000377500009305800C130585E42326B1003A
:100B700097200000E78000041305900097F0FFFF26
:100B8000E780407D37750000130545E6972000009B
:100B9000E780400213050AAB13840400138A0400A3
:100BA00097200000E780000193040000930A0002F0
:100BB000138504009305A00197600000E78040DCE6
:100BC000130515042300AA0093841400130A1A00C5
:100BD000E39054FF37750000130505E897200000E7
:100BE000E78040FDB774000083450400138544E9A5
:100BF0001304140097200000E780C0FB9307010551
:100C0000E39487FE130589F097200000E78080FABF
:100C100037750000130585E997200000E78080F90B
:100C200037750000130545EC97200000E78080F839
:100C3000138509A297200000E780C0F737750000F0
:100C4000130545EE97200000E780C0F68320C1071A
:100C50000324810783244107032901078329C1064F
:100C6000032A8106832A4106032B0106832BC10533
:100C7000130500001301010867800000130604003B
:100C8000930504001385CAD797200000E78080F2FF
:100C9000130414006FF09FC96376D600B385C500B6
:100CA0002380A5006780000067800000130101FD1C
:100CB00023248102232E3101232C4101232A5101B7
:100CC000232861012326710123248101232291011C
:100CD00023261102938C0800232291022320210352
:100CE00093F8380093090500138A0500130B0600DA
:100CF000938A0600930B070013840700130C080067
:100D00006392080C3309F8403309C90093040600C4
:100D100063F2070D1386040093860A00938414007F
:100D200093050A0013050002E7800900E39424FFFD
:100D3000630E040433098900330689401304F4FF69
:100D4000B3878B0003C5070093860A0093050A004A
:100D500093040900E7800900E31004FE93FC2C00D3
:100D600063860C02338B644163728B031386040029
:100D700093860A0093050A0013050002130B1B005B
:100D800093841400E7800900E3628BFF8320C10293
:100D900003248102032901028329C101032A81015D
:100DA000832A4101032B0101832BC100032C810005
:100DB000832C4100138504008324410213010103A5
:100DC000678000001309060093040600E39407F609
:100DD0006FF0DFF813090600E39E07F46FF01FFBC6
:100DE00083228100930F0800032E010093FE22004E
:100DF000032841001383070063980E04631C080E48
:100E000063F4C70593F31200930E0002130F00035F
:100E1000630AD30113031300B3076700A38FE7FF2F
:100E2000E368C3FF638A0306930E0002130F0003F7
:100E3000637C0301630ED30F13031300B307670032
:100E4000A38FE7FFE31803FF93F702016388070806
:100E500093F70240639E070463180304930700019D
:100E60006382F81C930720006380F81E9307000339
:100E70002300F70013031000639A0F0893F7420052
:100E800063840712B3086700130EB00293071300C0
:100E90002380C8016F00400593F7020163800704B7
:100EA00093F7024063960700630C6E0C630A680CAC
:100EB00093070001638AF808930720006388F80A03
:100EC000930700026300F302930703001303130068
:100ED000B307F7009308000323801701930700026C
:100EE000E31CF3F893070002938802001703000045
:100EF000670003DC93F312006388030263860F0C20
:100F00001308F8FFE3E2C7F16FF01FF2B3086700C0
:100F1000130ED0022380C8019307130093880200A8
:100F2000170300006700C3D8E3E0C7EF6FF0DFF1FD
:100F300093F70201E38807FA93F70240E38607F686
:100F400093070001E390F8FA93F702026388070819
:100F500093070002E308F3F8B307670093088005DE
:100F600023801701130313006FF09FF5930700020E
:100F7000E30AF3F693070300130313006F00C001A5
:100F80009307F3FF638A0706130E00016386C80DFB
:100F9000130E2000E39EC8F3B307F7009308200662
:100FA000238017016FF0DFF193F8820093070300AD
:100FB000E38C08F23303670093080002938717005D
:100FC000230013016FF05FF293F7C200B337F00014
:100FD0003308F840E36AC3E36FF01FE593070002AC
:100FE000E302F3F0B307670093088007238017013B
:100FF000130313006FF0DFEC93070001E394F8E6AE
:1010000093F70202638607049308800593070003A1
:1010100023001701A300F70013032000E3800FE66D
:101020006FF0DFEE93F702026384070293078005F7
:10103000930800032300F700A30017011303200007
:10104000E38E0FE26FF09FEC930720066FF05FFED8
:10105000930780076FF0DFFD9308E3FF13FE0202A2
:10106000B308170163080E00130E80052380C80122
:101070006FF01FE6130E80072380C8016FF05FE555
:10108000130101F8232C8106232A910623206107EE
:10109000232C8105232A91052328A1052326B105A8
:1010A000232E110623263107232E7105232CA100A0
:1010B000232EC100032B410813040700138C0500E5
:1010C000938C0600138D070093040800938D08008D
:1010D0006318070093770B40137BFBFE63920710A6
:1010E00093575B002328210723244107232251071C
:1010F00093F71700130910066390070E130969FF91
:10110000930B000093090102130A9000930A000256
:101110006F00C00063885B0513040500938504001D
:101120001305040097600000E78040821377F50FF5
:1011300093060703330727011377F70F6364AA00A9
:1011400013F7F60F938B1B00B3867901A38FE6FE8E
:10115000938504001305040097500000E780807A0F
:10116000E37A94FA03290107032A8106832A4106B8
:10117000832701080326C10103258101232461017E
:101180002322F1002320B1019388040013080D00ED
:1011900093870B001387090093860C0093050C00BE
:1011A00097000000E78000C48320C1070324810763
:1011B000832441078329C106032B0106832BC10524
:1011C000032C8105832C4105032D0105832DC104CA
:1011D0001301010867800000130910046FF01FF26B
:1011E000930B0000930901026FF09FF8130101F7C0
:1011F000232C8106232A910623206107232C8105B5
:10120000232A91052328A1052326B105138C070065
:10121000232E110623263107232E7105B367F7000D
:10122000232AA100232CB100232EC100832C010905
:10123000032BC10913040700138D0600930D08004A
:10124000938408006398070093770B40137BFBFEA1
:101250006392071293575B00232821072324410739
:101260002322510793F71700130910066390071004
:10127000130969FF930B000093090102130A900000
:10128000930A00021386040093860C0013050400E1
:1012900093050C0097200000E78000131375F50FED
:1012A00033062501930505031376F60F6364AA0040
:1012B00013F6F50F938B1B00B3857901A38FC5FE41
:1012C00093860C00138604001305040093050C009C
:1012D00097200000E780C0AB636E9C01638A8C019D
:1012E000638A5B0113040500138C05006FF09FF9FE
:1012F000E37894FE03290107032A8106832A410625
:10130000832781090326C101832581012322F1005E
:101310008327410903254101232461012320F10092
:101320009388040013880D0093870B00138709002E
:1013300093060D0097000000E780C0AA8320C10734
:1013400003248107832441078329C106032B010657
:10135000832BC105032C8105832C4105032D010539
:10136000832DC104130101096780000013091004D3
:101370006FF01FF0930B0000930901026FF05FF80C
:10138000130101EC232A91129384070023282113CF
:101390002326311323244113930706001309050064
:1013A00093890500138A060013050700938504003E
:1013B0001306070093860400232C81122322511365
:1013C0002328A111232E111223206113232E711122
:1013D000032D0114130407002328F10C232A010113
:1013E000938A080097300000E780804B631205580D
:1013F000B777000003A6873483A6C734130504001B
:1014000093850400232C8111232A91119730000029
:10141000E780C051634AA054B7770000232C8100B5
:10142000232E9100032581018325C10103A60735E1
:1014300083A6473597300000E780405C634605523D
:1014400023208102232291020325010283254102E8
:1014500013060000930600002326B111370B00800D
:1014600097300000E780805933CB64016346050064
:1014700023208102138B040093770D40232AF10C63
:101480006396070093076000232AF10013554B0170
:101490001375F57F130515C097400000E780805C49
:1014A000B777000003A6873583A6C73597300000BD
:1014B000E780C061B777000003A6073683A64736EA
:1014C00097200000E780C0429317CB003706F03F1B
:1014D00093D7C700B3E7C7002326F1022324810274
:1014E000B777000003A6873683A6C736130C05001E
:1014F000938B0500032581028325C10297400000DC
:10150000E78000CDB777000003A6073783A64737EB
:1015100097300000E780805B23288103232A710332
:101520001306050093860500032501038325410367
:1015300097200000E780C03B97400000E780C04252
:10154000130C050097400000E780C051B7770000FA
:1015500003A6873783A6C737930D0500938C050034
:1015600097300000E7808056B777000003A6073861
:1015700083A6473897200000E78080379740000017
:10158000E780803EB7770000232CB103232E910320
:1015900003A68738930B05008325C1030325810328
:1015A00083A6C73897300000E7804052930D0500AE
:1015B00013850B00938C0500232C710197400000CC
:1015C000E780404AB777000003A6073983A647396A
:1015D00097300000E780804F2320B105232291053A
:1015E00013060500938605000325010483254104A5
:1015F00097400000E780C0BD2324A1042326B10446
:10160000032681048326C104938B05002324A102B1
:1016100097300000E780804B03278102232A710561
:10162000232E71052328E104232CE104930D0500EA
:10163000938C0500032601058326410503258105BA
:101640008325C105232CE10297200000E780402A72
:10165000B77600002320B1072322910793080500E5
:101660001388050003A686390325010683A6C6391B
:10167000832541062328110323240103973000000A
:10168000E780809F377300000326033A8326433A9E
:1016900097200000E780C0252324B1072326910767
:1016A0001306050093860500032581068325C106E0
:1016B00097300000E780409CB776000003A6863A8A
:1016C00083A6C63A97200000E78080222328B1072E
:1016D000232A9107130605009386050003250107B9
:1016E0008325410797300000E78000990327810395
:1016F000B7770000232E7107232CE106930C050019
:101700000326810703A5073B8326C107938D0500A8
:1017100083A5473B97400000E78080AB23209109D9
:101720002322B1091306050093860500032501084D
:101730008325410897200000E780801B8328010350
:101740000328810213060500232411092326010919
:1017500093860500032581088325C1089730000082
:10176000E7808091B777000003A6873B83A6C73B3D
:1017700097200000E780C01783278101938BF73FF4
:10178000939B4B01930700002328F108232A71093A
:10179000032601098326410997300000E7800033C2
:1017A000232C8108232E6109032681098326C10980
:1017B000930C0500938B050097300000E78000171D
:1017C000377300006342A0202324910B2326710B62
:1017D000B71D0000938D0D80930B3C069307600CA2
:1017E000B3BB7701B37DBD01938B4B00937C2D0080
:1017F00063980D2063F65B0163800C20930C20003E
:1018000063060C022322610D2320810C0326810A2A
:101810008326C10A0325010C8325410C9730000063
:10182000E78080852320A102138B05002320810AF5
:101830002322910A0325010A8325410A1306000089
:101840009306000097300000E780401B83270102C9
:10185000634005302324F10C2326610D0327810CFE
:101860008327C10CB7F6FFFF032841010326010DB2
:101870009386F67FB376DD0093880D002320D10098
:101880009385090093060A001305090097000000DC
:10189000E780402E130605001345FDFF1375050272
:1018A0001305550493060A009385090013041600D6
:1018B000E70009009357FC419306500033C78701A6
:1018C000938BFBFF130604002322D1003307F7405C
:1018D000232071019357FC0193060A0093850900A8
:1018E00013050900930800001308A00097F0FFFFFC
:1018F000E78040791304050063880C028327010DFB
:10190000B304F54063F254031306040093060A007F
:101910009385090013050002938414001304140036
:10192000E7000900E3E254FF8320C113130504001C
:1019300003248113032C8111832C4111832DC110A9
:1019400083244113032901138329C112032A81121D
:10195000832A4112032B0112832BC111032D011184
:101960001301011467800000032C8111832C4111A5
:10197000032841010326010D130704009387040087
:101980002320A11593880A0093060A009385090075
:1019900013050900032481138320C11383244113F9
:1019A000032901138329C112032A8112832A4112B8
:1019B000032B0112832BC111032D011113010114FB
:1019C000170300006700031B2328910B232A710BC8
:1019D0000325010B8325410B0326033A8326433A53
:1019E000130CFCFF97200000E78000692324A10A64
:1019F0002326B10A6FF0DFDDB38D7A416FF05FE02F
:101A0000B7770000232C810A232E610B0325810B5D
:101A10008325C10B03A6073C83A6473C97300000F3
:101A2000E780C0F06348050AB7770000232C810CDB
:101A3000232E610D0325810D8325C10D03A6873C4F
:101A400083A6C73C97300000E78040FB635405083D
:101A500083274101930B00006356FC00B38B874141
:101A6000938BFBFF2320810E2322910E0325010E71
:101A70008325410E130600009306000097300000F6
:101A8000E780C0F76344050A2324810E2326610FF3
:101A90000327810E8327C10E37F3FFFF1303F37F64
:101AA00033736D00136303400326010D032C811172
:101AB000832C4111832DC11093880A0013880B00D9
:101AC00093060A0093850900130509002320611479
:101AD0006FF05FEC83274101638807028327410D84
:101AE0006380070483274101930D00009387F7FF6C
:101AF000232AF100E3F65BD1E3800CF0930C200085
:101B0000930D00006FF0DFCF930D0000E3FA5BCF81
:101B1000E3840CEE930D0000930C20006FF05FCE79
:101B2000E3E85BFF930D00006FF09FCDB7070080E7
:101B3000B347FB002328810E37F3FFFF232AF10E62
:101B40000327010F8327410F1303F37F6FF05FF526
:101B500037070080334BEB00232CF10E232E610F4F
:101B60000327810F8327C10FB7F6FFFF6FF0DFCF89
:101B7000130101F4232C810A232A910A13840700FC
:101B800093040700930F0500138F05001307060049
:101B900093850700138504009387060013860400CD
:101BA000930604002326310B2328A1092326B1091B
:101BB000232E110A832D010C2324F1012326E10198
:101BC0002328E100232AF10093090800138D08005F
:101BD00097300000E780C0CC63180532B77700006B
:101BE00003A6073583A64735138504009305040033
:101BF0002324410B2322510B97300000E78000E0A3
:101C0000634E053EB777000003A6873483A6C7342A
:101C100013850400930504002320610B232E710912
:101C200097300000E78080D06340A02AB77700009B
:101C300003A6073D83A6473D1385040093050400D2
:101C4000232C8109232A910997300000E78000CED8
:101C50006342A034B7770000232C9100232E81002B
:101C6000032581018325C10103A6873D83A6C73DC6
:101C700097300000E78080D8634E05302320910222
:101C8000232281020325010283254102130600005D
:101C9000930600002328210B97300000E78000D630
:101CA0006340052C2320010293F70D406394070045
:101CB000930960001309010693070900138B09FEBD
:101CC00013870900930690001306000363F0E636BD
:101CD0002380C7001307F7FF93871700E31867FFF8
:101CE000130C000223249102232681020325810282
:101CF0008325C102B77B000097400000E780C0C683
:101D0000B776000013163B009386860EB386C60096
:101D100083A9060003AA4600930C05009740000023
:101D2000E78040D423289102232A8102130605006C
:101D300093860500032501038325410397300000A6
:101D4000E78000491386090093060A00232C31011D
:101D5000232E410197300000E78040D7138A050009
:101D6000930A050097400000E78000C8930905002A
:101D700097400000E78080DA232C5103232E410393
:101D80001306050093860500032581038325C103FF
:101D900097300000E780C04303AA0B3883AA4B3872
:101DA0002324A10213060A0093860A002328B10205
:101DB00097300000E78080B76350A028938919000E
:101DC0001385090097400000E78040D51306050001
:101DD00093860500032581018325C101973000000A
:101DE000E780C0C16346A000938C1C0093090000EB
:101DF00063000B2813040002930490006F0040035B
:101E000097500000E78080B4130C1C0013050503F5
:101E1000330A8901A30FAAFE9305A00013850900C8
:101E200097500000E78000AE63F634359309050053
:101E30009305A00013850900130BFBFFE3128CFC34
:101E4000130C0002130400026F00400397500000BF
:101E5000E78000B3130C1C0013050503B3048901CC
:101E6000A38FA4FE9305A00013850C0097500000DB
:101E7000E780C0A8930C0500630205249305A00029
:101E800013850C00E3148CFC13F73D00930610003F
:101E9000631CD724630A0D24832701026388072A61
:101EA000130DFDFF6372AC259306000213060003B9
:101EB000630CDC22130C1C00B3078901A38FC7FE3F
:101EC000E368ACFF6F00402093F74D006392070872
:101ED00037770000130747F193073000832641014D
:101EE000032601018325C10003258100032A810AFD
:101EF000832A410A032B010A832BC10993880D0011
:101F000013080D006F0080028326410103260101A2
:101F10008325C100032581003777000093880D00D9
:101F200013080D00130787F1930730000324810B7A
:101F30008320C10B8324410B8329C10A032D01098E
:101F4000832DC1081301010C17F3FFFF670043D66F
:101F5000377700001307C7F0930740006FF01FF8B2
:101F6000232C9104232E8104032681058326C10599
:101F7000130500009305000097300000E78040251E
:101F80009307100093040500138405002320F10239
:101F90006FF09FD123209104232281040324810B1D
:101FA0002320B10D03270104832741048326410127
:101FB000032601018325C10003258100032A810A2C
:101FC000832A410A032B010A832BC109032C8109AF
:101FD000832C41098320C10B8324410B832DC1082D
:101FE00093080D0013880900032D01098329C10AF4
:101FF0001301010C17F3FFFF6700C33837770000A8
:1020000083264101032601018325C10003258100A8
:10201000032A810A832A410A93880D0013080D00C0
:102020001307C7F1930740006FF05FF0338CE9406E
:10203000130B07006FF01FCB8327810213060A00E2
:1020400093860A002324F1048327010303258104D6
:102050002326F1048325C10497300000E780009A0D
:10206000E34805D86398091693891900E3140BD83F
:1020700013850C0097400000E780C09E2328910440
:10208000232A810413060500938605000325010514
:102090008325410597300000E780801303A60B38A5
:1020A00083A64B3897300000E7804095E34C05D875
:1020B00013871C00937CE7FF6FF0DFD813F73D0018
:1020C000930610006304D71213070002630EEC009E
:1020D00083270102638807089306D00233072C0088
:1020E0002300D706130C1C0083264101032601019F
:1020F0008325C1000325810093880D0013080D007E
:1021000093070C001307090097F0FFFFE78040BA20
:102110008320C10B0324810B0329010B032A810AAD
:10212000832A410A032B010A832BC109032C81094D
:10213000832C41098324410B8329C10A032D010902
:10214000832DC1081301010C6780000013F7CD0037
:10215000630A0708130DFDFFE368ACD513070002FF
:10216000E304ECF813F74D00630607049306B0028E
:102170006FF0DFF6E3068CCC33088B019305000388
:1021800013060002630E0C01130C1C00B307890137
:10219000A38FB7FEE318CCFE130C00026FF09FCAAA
:1021A000330828009306E002130C1C002300D80615
:1021B0006FF05FC913F78D00E30807F29306000282
:1021C000B307DC00338727002300D704130C1C005F
:1021D0006FF09FF193F61900E38C06C09389190004
:1021E0006FF0DFE8E362ACCD6FF01FF0E30E0DECB3
:1021F00083270102E38C07F4130DFDFFE366ACCBEC
:10220000E31C8CEC6FF05FEE631405006780000048
:1022100017130000670003B76308050083A70500D4
:1022200083A545006780070067800000130101F95E
:102230002322910623202107232E31052324810503
:10224000232EB10323261106232481062320A10572
:102250001389050093040600938D0600130C0700F4
:10226000930905006384054E03C50D00130D00009E
:102270006308054E232C4105232A510523286105B7
:102280002326710523229105130B5002130400012C
:10229000377A0000930A90006F00000213060D00C9
:1022A0009386040093050900130D1D00E7800900C3
:1022B00003C50D00630A0516938D1D00E31065FF2D
:1022C0009306000003C50D0013871D00930705FE4C
:1022D00093F7F70F636CF4009397270013068AF4C3
:1022E000B387C70083A7070067800700930705FD32
:1022F00093F7F70F63F4FA0C9307A002930C000016
:102300006304F5209307E002130800006306F50E4E
:10231000930785F993F7F70F130620016362F6061A
:1023200037760000939727001306C6F8B387C700D7
:1023300083A707006780070093E61600930D070048
:102340006FF05FF893E62600930D07006FF09FF79C
:1023500093E64600930D07006FF0DFF693E6060163
:10236000930D07006FF01FF693E68600930D0700AC
:102370006FF05FF503C51D0093E606101307170005
:1023800093077006930D070063E0A71093074002C0
:10239000E3F6A7F09307B5FD93F7F70F13072004B3
:1023A000E36EF7EE3777000093972700130787FD5A
:1023B000B387E70083A7070067800700930C00003E
:1023C00093972C00B387970193971700B387A700C3
:1023D00003450700938C07FD930D0700930705FD48
:1023E00093F7F70F13071700E3FCFAFC9307E002DB
:1023F00013080000E31EF5F003C51D0093079000CD
:1024000093E60640930505FD93F5F50F13060700C7
:1024100063FEB7349307A0026308F53A930D0700F3
:10242000130717006FF0DFEE032A8105832A4105A9
:10243000032B0105832BC104832C410413040D00DD
:1024400063649D00138DF4FF9386040013060D0052
:102450009305090013050000E78009008320C106E9
:102460001305040003248106832441060329010681
:102470008329C105032C8104032D0104832DC1038D
:102480001301010767800000930775F993F7F70FB1
:102490001307F000E364F7E0930B10003797000098
:1024A000B39BFB001307170433F7EB002322E10271
:1024B000631A072E1307A0006386E7061307700050
:1024C000E39EE7DC03270C0093E6160293078000E7
:1024D0009308080013060D002322D1002320F100E9
:1024E0001308000193070000938604009305090078
:1024F0001385090097F0FFFFE780C0B8130C4C006C
:10250000130D05006FF0DFDA832C0C00130C4C0068
:1025100063CA0C0C03C51D00930D070013071700B9
:102520006FF05FDE93074C002326F102032C0C00B2
:102530001306F0FF630408001306080003450C00AF
:102540003306CC0093070C0063000554630CF63A85
:1025500003C7170093871700E31A07FEB387874165
:102560002324F10293F706402320F1026388070039
:10257000832781026374F8002324010393F6260065
:1025800063820640930720002322F102930B0D0083
:1025900083270102638807009307F8FF630A080294
:1025A00013880700232E010113860B009386040075
:1025B00093050900E7800900938B1B003387AB412B
:1025C0003307EC00034507000328C101E31205FCB3
:1025D00083274102639E073E032CC102138D0B002B
:1025E0006FF01FCD03C51D0093E62600930D070075
:1025F000B30C9041130717006FF0DFD003C51D0027
:102600009307C006E31AF5D603C52D0093E60630FE
:1026100013873D006FF0DFD603C51D0093E606204B
:10262000130717006FF0DFD503C51D009307800661
:102630006300F52E93E60608130717006FF05FD4CA
:10264000930770066308F51A930770046302F52A6E
:10265000930750046304F52A130C7C00137C8CFF51
:1026600003270C0083274C0013060D002320D10004
:1026700093880C00938604009305090013850900D4
:1026800097F0FFFFE78000D0130C8C00130D0500BE
:102690006FF01FC293076004630AF514130C7C00EB
:1026A000137C8CFF03270C0083274C0013060D00BE
:1026B0002320D10093880C00938604009305090021
:1026C0001385090097F0FFFFE780C04A130C8C00C8
:1026D000130D05006FF0DFBD13060D009386040097
:1026E0009305090013055002130D1D00E780090032
:1026F0006FF01FBC93074C0093F626002320F102D5
:10270000930B1D006384062203450C0013060D0085
:102710009386040093050900E780090093071000E1
:10272000330D9D0163FA973913860B0093860400DD
:10273000938B1B009305090013050002E780090035
:10274000E3147DFF032C01026FF09FB603C50D005B
:10275000B7190000938989CA130D0000E31C05B066
:1027600013040000E3629DCE6FF0DFCD13870700F6
:1027700093172800B38707011306160093971700D5
:10278000B387A70003450600138807FD930705FDDF
:1027900093F7F70FE37EF7FC930D0600130716007F
:1027A0006FF01FB79307F006630EF50463FAA736C0
:1027B00093078007130600016308F50493F6F6FEFD
:1027C0001306A0006F00400403280C0003C52D0071
:1027D000938D2D009347F8FF93D7F741130C4C00CE
:1027E0003378F80013871D006FF09FB293E606025E
:1027F0006FF0DFEAB717000093870780B3E6F600B3
:102800006FF09FE51306800093F7064093F536FFBF
:102810006384070093F526FF93F705206394072A46
:1028200093F70510930B4C00639A073093F7050458
:102830006398072493F705086386073203570C0053
:102840002322B100232091019308080013080600F9
:102850009307000013060D006F00800793078005A3
:102860006300F50C9307200613062000E30EF5F82D
:1028700093F7064093F5E6FE6380072093F7052063
:102880006392071893F70510930B4C006394072687
:1028900093F70504639C071C93F70508638A072ACE
:1028A00083170C0093D6F74033C7D7003307D740C0
:1028B0001317070113570701930808002322B100DB
:1028C0002320910193D7F70113060D001308A000F0
:1028D00093860400930509001385090097E0FFFF24
:1028E000E780407A138C0B00130D05006FF05F9C9E
:1028F000B717000093870780B3E6F60093E6060259
:102900006FF09FD5B30786412324F1026FF09FC576
:1029100003C52D0093E6060C13873D006FF05FA6FC
:1029200093E60602130600016FF01FEE93071000F6
:1029300063FA9717930BFDFFB3879B01232EF100DA
:10294000930B0D0013860B0093860400930509007A
:1029500013050002E78009008327C101938B1B0048
:10296000E39277FF03450C0013860700938604006B
:1029700093050900E7800900330D9D01032C010236
:102980006FF01F938327810263F69721032781024B
:10299000B387AC01B38BE740232E010113060D0072
:1029A000938604009305090013050002E7800900DF
:1029B000130D1D000328C101E390ABFF03450C007C
:1029C00093871C002324F102E31205BC6FF0DFC0E3
:1029D000138D0B0003278102637A971BB387AC0129
:1029E000B38BE74013060D0093860400130D1D0002
:1029F0009305090013050002E7800900E394ABFF8B
:102A00006FF09FBD130C7C00137C8CFF03254C00E2
:102A100083270C0013060D009356F541B3C7F6004B
:102A20003387D740B3C8A600B386D840B3B7E70012
:102A3000232201012326B100232491012320010038
:102A4000B387F6401358F5019308A000938604005D
:102A5000930509001385090097E0FFFFE78040799F
:102A6000130C8C00130D05006FF09F8483470C003E
:102A7000138707006FF05FE493F5F6FE6FF01FE039
:102A800003470C006FF0DFDB93F706402324F102CD
:102A90006384070E93F62600638606102324010242
:102AA0006FF05FF303450C0013060D0093860400DE
:102AB00093050900E7800900032C0102138D0B0028
:102AC0006FF00FFF130C7C00137C8CFF03270C00AE
:102AD00083274C00930806002322010113060D00F2
:102AE0002326B100232491012320010013080000B4
:102AF0006FF0DFF583270C00930808002322B10054
:102B000013D7F741B346F7002320910113060D00B8
:102B10003387E64093D7F7011308A0006FF05FDB1F
:102B20009307900693F5F6FE6312F50493F70640BB
:102B3000E38607D493F5E6FE6FF05FD403270C001D
:102B4000930808002322B100232091016FF01FD0C9
:102B500083270C0093D6F74133C7F6003307D740DD
:102B60006FF09FD503270C006FF09FCD9386050073
:102B70001306A0006FF05FC993F726002320F1022F
:102B8000E39A07E423240102E3920CE0930B0D0087
:102B90006FF09FA4938717002324F10223220102E0
:102BA0006FF0DF9E930700402320F1026FF09FFD3E
:102BB000130101FC13034102372E00002322B1024E
:102BC0002324C1022326D1022328E1029306050013
:102BD000930581001307030013058E201306F0FFF1
:102BE000232E1100232AF102232C0103232E11038B
:102BF0002326610097F0FFFFE78080638320C101F7
:102C00001301010467800000130101FC130381021A
:102C1000938E0500371E00002324C1022326D10213
:102C20002328E1029305050093860E001307030095
:102C300013058EC91306F0FF232E1100232AF1027B
:102C4000232C0103232E11032326610097F0FFFF9D
:102C5000E780005E8320C10113010104678000004A
:102C6000130101FC1303C102138F0500930E06002C
:102C7000371E00002326D1022328E1029305050018
:102C800013060F0093860E001307030013058EC969
:102C9000232E1100232AF102232C0103232E1103DA
:102CA0002326610097F0FFFFE78080588320C10151
:102CB0001301010467800000130101FE9306050063
:102CC0003725000013870500130585209305C100F3
:102CD0001306F0FF232E110097F0FFFFE780405509
:102CE0008320C10113010102678000009388050061
:102CF00013080600B71700001387060093050500A8
:102D00001386080093060800138587C917F3FFFF91
:102D100067000352130101FC1303C102372F0000A7
:102D2000930E0500138E05002326D1022328E1020D
:102D300093060600930581001307030013058F21F6
:102D40001306F0FF232E11002324D1012326C101F5
:102D5000232AF102232C0103232E110323226100D5
:102D600097F0FFFFE780C04C8320C10113010104ED
:102D70006780000093082000730000006780000057
:102D8000930820007300000067800000130101FD1C
:102D9000232C4101232611022324810223229102A4
:102DA00023202103232E3101232A510123286101ED
:102DB0002326710123248101232291012320A101D3
:102DC000130A0500639A063C930906009304050064
:102DD000974700009387073E63F4C5143707010047
:102DE000138905006374E6121337061013371700B2
:102DF00013173700B356E600B387D70083C6070022
:102E00003387E60093060002B387E640638CE60052
:102E10003399F5003357EA00B319F60033692701F7
:102E2000B314FA0093DA090193850A001305090027
:102E3000139B090197400000E780C0AC135B0B01B6
:102E400093050500130A050013050B0097400000C9
:102E5000E78080A81304050093850A001305090084
:102E600097400000E78080AE1315050113D70401D9
:102E70003367A70013090A00637E87003387E900E0
:102E80001309FAFF63683701637687001309EAFFC5
:102E9000330737013304874093850A001305040084
:102EA00097400000E78000A693050500130A05007F
:102EB00013050B0097400000E78000A2130B0500EC
:102EC00093850A001305040097400000E78000A8DE
:102ED000939404011315050193D40401B3E4A400F1
:102EE00013070A0063FC6401B38499001307FAFF17
:102EF00063E6340163F464011307EAFF93170901E1
:102F0000B3E7E700130900006F008013B706000164
:102F100013078001E370D6EE130700016FF09FEDF9
:102F200013070000630C060037070100637AE614FC
:102F3000133706101337170013173700B356E60080
:102F4000B387D70083C7070093060002B387E70063
:102F50003387F6406390F614338AC5401309100096
:102F600013DB090193050B0013050A00939B09016C
:102F700097400000E780009993DB0B019305050063
:102F8000130C050013850B0097400000E780C094E8
:102F9000930A050093050B0013050A0097400000F3
:102FA000E780C09A1315050113D704013367A70002
:102FB000130A0C00637E57013387E900130AFCFFF4
:102FC0006368370163765701130AECFF3307370153
:102FD0003304574193050B0013050400974000008C
:102FE000E780409293050500930A050013850B00C6
:102FF00097400000E780408E930B050093050B007F
:103000001305040097400000E78040949394040166
:103010001315050193D40401B3E4A40013870A0037
:1030200063FC7401B38499001387FAFF63E63401EB
:1030300063F474011387EAFF93170A01B3E7E7000B
:103040008320C10203248102832441028329C10118
:10305000032A8101832A4101032B0101832BC10033
:10306000032C8100832C4100032D010093050900EE
:103070001385070003290102130101036780000083
:10308000B706000113078001E37AD6EA13070001AF
:103090006FF0DFEAB319E60033D9F50093DB0901DD
:1030A000B395E500B357FA00B3EAB700B314EA00EA
:1030B00093850B0013050900139A0901974000003E
:1030C000E7804084135A0A0193050500130B05009D
:1030D00013050A0097400000E780008013040500F4
:1030E00093850B001305090097400000E7800086D8
:1030F0001315050113D70A013367A70013090B0045
:10310000637E87003387E9001309FBFF636837019B
:10311000637687001309EBFF3307370133048740D9
:1031200093850B001305040097300000E780807D35
:1031300093050500130B050013050A0097300000E6
:10314000E7808079130A050093850B0013050400BE
:1031500097300000E780807F93970A0113150501DF
:1031600093D70701B3E7A70013070B0063FE4701DE
:10317000B387F9001307FBFF63E8370163F64701E4
:103180001307EBFFB387370113190901338A47414E
:103190003369E9006FF0DFDC63E0D522B707010097
:1031A00063F4F60413B7061013371700131737002C
:1031B00033D5E600974700009387C7FFB387A70082
:1031C00003C80700930700023308E800338907416A
:1031D0006396070393071000E3E4B6E6B337CA002B
:1031E00093B717006FF0DFE5B70700011307800101
:1031F000E3F0F6FC130700016FF09FFBB396260186
:10320000B35A0601B3EADA00B3D9050113DC0A01A7
:1032100033580A01B3952501B364B800939B0A01A2
:1032200093050C00138509003314260193DB0B0171
:1032300097300000E780006D93050500130D050031
:1032400013850B0097300000E7800069930C0500A0
:1032500093050C001385090097300000E780006F8C
:103260001315050193D60401B3E6A600130B0D0058
:1032700063FE9601B386DA00130BFDFF63E8560187
:1032800063F69601130BEDFFB3865601B3899641A1
:1032900093050C001385090097300000E7808066D5
:1032A00093050500930C050013850B009730000073
:1032B000E7808062930B050093050C0013850900DD
:1032C00097300000E780806813970401131505010B
:1032D000135707013367A70093860C00637E7701BD
:1032E0003387EA009386FCFF6368570163767701B2
:1032F0009386ECFF3307570193170B0113980601D0
:1033000013130401B3E7D700135808011353030143
:103310003307774113DE0701135404011305080036
:103320009305030097300000E780005B93080500D9
:10333000930504001305080097300000E780C0598A
:10334000130805009305030013050E0097300000D5
:10335000E7808058130305009305040013050E0051
:1033600097300000E780405793D608013308680083
:10337000B38606011306050063F66600B705010073
:103380003306B50093D506013386C5006362C702D4
:10339000E31AC7B6939808019396060193D80801DB
:1033A00033172A01B386160113090000E37AD7C840
:1033B0009387F7FF6FF01FB5130900009307000014
:1033C0006FF01FC8130101FD232481022322910203
:1033D0002326110223202103232E3101232C410116
:1033E000232A51012328610123267101232481010D
:1033F000232291012320A1011304050093840500D9
:10340000639406289309060097460000938686DA9F
:1034100063FAC514B7070100637CF61293370610F0
:1034200093B71700939737003357F600B386E6003B
:1034300003C70600B307F700130700023309F7407C
:10344000630CF700B3942501B357F500B3192601B7
:10345000B3E497003314250193DA090193850A0038
:10346000139B09011385040097300000E780804911
:10347000135B0B0193050B0097300000E780C045FC
:10348000130A050093850A00138504009730000095
:10349000E780C04B1315050193570401B3E7A7005C
:1034A00063FA4701B387F90063E6370163F4470124
:1034B000B3873701B384474193850A00138504001D
:1034C00097300000E780004493050B009730000020
:1034D000E7808040130A050093850A0013850400E5
:1034E00097300000E780804613140401131505018E
:1034F000135404013364A400637A440133848900C3
:103500006366340163744401330434013304444179
:1035100033552401930500008320C1020324810256
:1035200083244102032901028329C101032A810165
:10353000832A4101032B0101832BC100032C81004D
:10354000832C4100032D010013010103678000005B
:103550003707000193078001E378E6EC9307000149
:103560006FF09FEC13070000630C0600B707010023
:103570006372F6101337061013371700131737004E
:10358000B357E600B386F60083C70600B384C54090
:10359000B387E700130700023309F740E30EF7EAA9
:1035A000B3192601B3DBF50013DB0901B357F500AE
:1035B000B395250133EAB7003314250193050B00B9
:1035C000939A090113850B0097300000E780803340
:1035D00093DA0A0193850A0097300000E780C02F34
:1035E0009304050093050B0013850B009730000032
:1035F000E780C0351315050113570A013367A7008B
:10360000637A97003387E900636637016374970034
:1036100033073701B304974093050B00138504006B
:1036200097300000E780002E93850A009730000055
:10363000E780802A930A050093050B001385040098
:1036400097300000E780803093170A0113150501B9
:1036500093D70701B3E7A70063FA5701B387F900CF
:1036600063E6370163F45701B3873701B3845741E9
:103670006FF09FDEB707000113078001E372F6F0D9
:10368000130700016FF0DFEFE3E8D5E8B7070100AB
:1036900063FEF60493B7061093B7170093973700AD
:1036A00033D8F600174700001307C7B033070701E8
:1036B000834A0700B38AFA0093070002338A57410E
:1036C0006390570563E4B600636CC5003309C540D9
:1036D000B386D540B334250113040900B384964062
:1036E00013050400938504006FF01FE33707000102
:1036F00093078001E3F6E6FA930700016FF05FFAA3
:10370000B3964601335B5601336BDB00B3DB5501E7
:1037100033545501B395450193540B013364B40000
:10372000B31945019385040013850B00131C0B018D
:1037300033194601135C0C0197300000E780801CB0
:1037400093050500130D050013050C0097300000CC
:10375000E7808018930C05009385040013850B0007
:1037600097300000E780801E131505019357040170
:10377000B3E7A700930B0D0063FE9701B307FB00AF
:10378000930BFDFF63E8670163F69701930BEDFF71
:10379000B3876701B38C97419385040013850C00B0
:1037A00097300000E780001693050500130D050013
:1037B00013050C0097300000E78000129385040089
:1037C000130C050013850C0097300000E7800018EB
:1037D000931504011315050193D50501B3E5A50063
:1037E00093070D0063FE8501B305BB009307FDFF42
:1037F00063E8650163F685019307EDFFB385650115
:10380000939B0B01B3EBFB009318090193970701FE
:1038100093D7070193D80801B384854193DB0B014B
:10382000135709011385070093850800973000009E
:10383000E780800A13080500930507001385070039
:103840009307070097300000E78000091307050081
:103850009385080013850B0097300000E780C007B0
:10386000930805009385070013850B00973000002F
:10387000E78080069357080133071701B387E700F5
:103880009306050063F6170137070100B306E5004C
:1038900013D707011318080193970701135808015C
:1038A0003307D700B387070163E6E400639EE400B3
:1038B00063FCF90033892741B3B62701B38666015B
:1038C000930709003307D740B387F940B3B9F9002C
:1038D000B385E440B3853541B39A5501B3D7470169
:1038E00033E5FA00B3D545016FF01FC33708100068
:1038F0001308F8FF130101FEB378B80013D7450190
:103900003378D80023244101137AF77F13973800C6
:1039100093D846019357D501131838002326310157
:1039200093F8F87F93D9F501232E11009355D60112
:10393000232C8100232A91002328210123225101D5
:1039400093D6F601B3E50501B3E7E700131535009B
:103950001316360033081A411303F07F6398D932E7
:10396000635E00176398080A33E7C5006306070221
:103970001308FAFF631008023306C5003337A600A8
:10398000B385B70013050600B387E500130A1000DE
:103990006F00400D63166A089396D70113553500E2
:1039A0001307F07FB3E6A60093D73700631EEA0043
:1039B000B3E6F6009307000063880600B707080027
:1039C000930600009309000013174A013706F07FA1
:1039D0009397C7003377C7008320C1010324810177
:1039E00093D7C700B367F7001397F90133E6E700F1
:1039F00083244101032901018329C100032A810095
:103A0000832A410013850600930506001301010275
:103A100067800000E3026AF837078000B3E5E5003D
:103A2000130780036346070B1307F0019308000296
:103A300063480707B388084133971501B356060159
:103A4000B31816013367D700B33810013367170175
:103A500033D805013305A7003308F8003337E500F4
:103A6000B307E80013978700635E071C130A1A0068
:103A70001307F07F630CEA5C370780FF1307F7FF3B
:103A8000B3F7E70013571500137515003367A70048
:103A90001395F7013365E50093D717006F00801A7F
:103AA000130708FE33D7E5009306000063081801EA
:103AB00093060004B3860641B396D500B3E6C6006C
:103AC000B336D0003367D700130800006FF09FF8BB
:103AD00033E7C5003337E0006FF01FFF6306080CC3
:103AE0003387484163140A02B3E6A70063880600DF
:103AF0009306F7FFE38206E86312670293870500E7
:103B000013050600130A07006FF01FE96386685467
:103B1000B7068000B3E7D7009306070013078003BA
:103B2000634ED7061307F001130300026340D70466
:103B30003303D340339767003358D5003313650000
:103B4000336707013333600033676700B3D6D700AC
:103B50003306C700B386B6003337E6001305060008
:103B6000B387E600138A08006FF0DFEF138706FEC5
:103B700033D7E700130800006388660013080004C9
:103B80003308D840339807013368A8003338000160
:103B900033670701930600006FF09FFB33E7A70030
:103BA0003337E0006FF01FFF13071A009376E77FAB
:103BB0006396060633E7A70063120A046306074606
:103BC00033E7C500630607463307C500B385B70072
:103BD000B337A700B387F500939687001306070055
:103BE00063DE062CB70680FF9386F6FFB3F7D70097
:103BF00013050700130A10006FF01FDA630E074267
:103C000033E6C500130A0300E30806D89309000051
:103C1000B7074000130500006FF01FD86306674226
:103C20003306C5003335A600B385B700B385A500BC
:103C30001395F501135616003365C50093D715008B
:103C4000130A070013777500630007021377F50066
:103C500093064000630AD7003307D500B336A700A8
:103C6000B387D7001305070013978700E35607D2E1
:103C7000130A1A001307F07F630AEA3C370780FF34
:103C80001307F7FFB3F7E7006FF01FD16354000F7E
:103C9000639C080833E7C500E30007D01308FAFF68
:103CA000631008023306C5403337C500B385B740FB
:103CB00013050600B387E540130A10006F000005E6
:103CC000E30C6ACC130780036340070B1307F00172
:103CD0009308000263420707B38808413397150130
:103CE000B3560601B31816013367D700B338100175
:103CF0003367170133D805013307E540B336E500D4
:103D00003388074113050700B307D840139787008E
:103D1000E35A07F2370980001309F9FF33F9270145
:103D2000930A05006F008021E3086AC63707800008
:103D3000B3E5E5006FF01FF9130708FE33D7E50080
:103D4000930600006308180193060004B386064139
:103D5000B396D500B3E6C600B336D0003367D700BC
:103D6000130800006FF05FF933E7C5003337E00058
:103D70006FF01FFF6304080E3388484163120A0482
:103D800033E7A700630407021307F8FF631E070069
:103D90003305A640B385F5403336A600B387C5404A
:103DA000938906006FF05FF163146802938906003F
:103DB0009387050013050600130A08006FF0DFBDA6
:103DC000638A682837078000B3E7E7001307080015
:103DD00013088003634EE8061308F001130E000277
:103DE0006340E804330EEE403353E5003398C701D7
:103DF000331EC50133686800333EC0013365C80116
:103E000033D7E7003305A6403387E5403336A600B5
:103E1000B307C740138A0800938906006FF01FEFAD
:103E2000130807FE33D80701130300006308C70116
:103E3000130300043303E340339367003363A300A9
:103E40003333600033656800130700006FF09FFB99
:103E500033E5A7003335A0006FF01FFF13071A00EA
:103E60001377E77F6314070A33E8A70033E7C50039
:103E7000631A0A06631A080093870500631E070287
:103E8000930900006F00801C6304071A3308C540C3
:103E9000B33805013387B7403307174193188700BC
:103EA00063D808023305A6403337A600B385F54032
:103EB00013060500B387E5409389060033E5C70084
:103EC0006308050E13050600130A00006FF09FD764
:103ED0003365E800630A0518930707001306080016
:103EE0006FF0DFFD631E0800938906006316071458
:103EF00093090000B7074000130500006F0040144D
:103F0000130A0300E30A07A86FF05FD03307C54028
:103F10003338E5003389B740330909411318890064
:103F2000930A070063500808B30AA6403389F54096
:103F3000333656013309C9409389060063000908E6
:103F40001305090097300000E78080A6130685FF5F
:103F500093070002B387C7403319C900B3D7FA00EB
:103F6000B3E727013399CA006344460B3306464141
:103F7000930516001307F001930600026342B7068B
:103F8000B386B6403396D7003357B900B316D9007D
:103F90003366E600B336D0003366D600B3D7B70039
:103FA0006FF0DFF133652701E31A05F8930900008C
:103FB00093070000130A00006FF01F9E13850A008C
:103FC00097300000E780C09E130685019307F0013B
:103FD000E3D0C7F8930785FFB397FA006FF0DFF8D7
:103FE000130616FE33D6C700130700006388D500FA
:103FF000130700043307B7403397E7003367E9003E
:104000003337E0003366E600930700006FF01FEBE4
:10401000370780FF1307F7FF330ACA40B3F7E700FB
:10402000130509006FF01FC2938705006FF01FE9A9
:10403000130605006FF09FE893870500130506003F
:10404000130A03006FF05F95130A0700930700003F
:104050006FF05FBC93890600938705001305060087
:10406000138A08006FF05F93930900009307000024
:104070006FF09F92130101FB232A510393DA45014C
:1040800023248104232C4103232861032324810357
:104090002320A1031394C500232611042322910495
:1040A00023202105232E310323267103232291038C
:1040B000232EB10193FAFA7F130A0500130D0600AF
:1040C000138C06001354C40013DBF50163820A0A43
:1040D0009307F07F6386FA10935BD50113143400C5
:1040E000B3EB8B00B7078000B3EBFB0093143500F4
:1040F000938A1AC0930C000013574C011314CC0080
:104100001377F77F1354C400135CFC01630407109A
:104110009307F07F630CF716131434009357DD01F7
:10412000B3E787003704800033E4870013183D00AD
:10413000130717C09306000093972C00B3E7D7002E
:10414000B38AEA409387F7FF1307E000334A8B01F5
:104150006366F71617370000130747FE939727008B
:10416000B387E70083A70700B387E70067800700EE
:10417000B36BA40063800B08630004041305040000
:1041800097300000E780C082930755FF930BD00162
:10419000130785FFB38BFB403314E400B35B7A0154
:1041A000B3EB8B003314EA00930AD0C0B38AAA4061
:1041B000930404006FF01FF497200000E780407F15
:1041C000930B050093875B011307C00113050502DC
:1041D000E35EF7FA938B8BFFB31B7A016FF0DFFC82
:1041E000B36BA40063900B0293040000930C2000B7
:1041F0006FF09FF093040000930A0000930C1000EE
:104200006FF09FEF93040500930B0400930C3000B4
:104210006FF09FEE3368A40163040808630204048E
:104220001305040097200000E7808078130755FFEE
:104230009307D001930685FFB387E7403314D4007A
:10424000B357FD00B3E787003314DD001307D0C078
:10425000130804003307A740138407006FF09FED95
:1042600013050D0097200000E78080749307050078
:10427000138757019306C00113050502E3DAE6FA36
:10428000938787FFB317FD006FF05FFC3368A401CD
:104290006310080213040000930620006FF0DFE9AA
:1042A0001304000013070000930610006FF0DFE80E
:1042B00013080D00930630006FF01FE86366740169
:1042C00063968B4A63E4044B1397FB0193D7140066
:1042D000939CF40193DB1B00B364F7001314840078
:1042E00093570401935D88012324F100B3ED8D0001
:1042F0008325810093970D0193D7070113850B0048
:104300002326F100131B880097200000E780805FC0
:1043100093050500130C050013950D0113550501B8
:1043200097200000E780405B83258100130405008F
:1043300013850B0097200000E780406113150501ED
:1043400093D70401B3E7A700930B0C0063FE87002B
:10435000B387FD00930BFCFF63E8B70163F68700AA
:10436000930BECFFB387B70183258100338487402B
:104370001305040097200000E780C058930505004E
:10438000130D050013950D0113550501972000002D
:10439000E780805483258100130C05001305040079
:1043A00097200000E780805A9394040113150501BB
:1043B00093D40401B3E4A40093070D0063FE8401C9
:1043C000B3849D009307FDFF63E8B40163F68401A5
:1043D0009307EDFFB384B40113980B013368F80021
:1043E0009317080113170B011357070193D7070100
:1043F000B3848441935E0801138507002326E100FE
:104400009305070097200000E780004D1303050087
:1044100093550B011385070097200000E780C04BE0
:10442000930705009305070013850E0097200000F1
:10443000E780804A130E050093550B0113850E008B
:1044400097200000E7804049135D0301B387C7014F
:10445000330DFD00930605006376CD01B70701001B
:10446000B306F50093570D0113130301131D0D013E
:1044700013530301B387D700330D6D0063E8F400D5
:10448000130408006398F40463F6AC05B3866C016A
:1044900033B69601B305B601B384B4001304F8FF34
:1044A000938C060063E69D0063969D0263140602EA
:1044B00063E6F4006390970263FEA601B306DB0097
:1044C000938C0600B3B66601B386B6011304E8FF09
:1044D000B384D400338DAC41B384F440B3B8AC01A1
:1044E000B38414411308F0FF63869D1C832581006B
:1044F0001385040097200000E780C0409305050065
:10450000130C050013950D011355050197200000AC
:10451000E780803C83258100930B05001385040010
:1045200097200000E78080421315050193570D0185
:10453000B3E7A70093040C0063FE7701B387FD0087
:104540009304FCFF63E8B70163F677019304ECFF83
:10455000B387B70183258100338C774113050C00A5
:1045600097200000E780003A93050500930B0500B3
:1045700013950D011355050197200000E780C03504
:1045800083258100930C050013050C009720000083
:10459000E780C03B93170D011315050193D7070161
:1045A000B3E7A70013860B0063FE9701B387FD00F6
:1045B0001386FBFF63E8B70163F697011386EBFFF1
:1045C000B387B70193980401B3E8C80013930801B7
:1045D0001353030193150B01B387974193DE080131
:1045E0001305030093D5050197200000E780C02E36
:1045F0001308050093550B011305030097200000D5
:10460000E780802D93150B011303050093D5050159
:1046100013850E0097200000E780002C130E050084
:1046200093550B0113850E0097200000E780C02AE8
:10463000935608013303C301B38666009305050052
:1046400063F6C60137060100B305C50013D606019F
:104650001318080193960601135808013306B60093
:10466000B386060163E8C700138808006392C70495
:1046700063820604B387FD001388F8FF9385070063
:1046800063E4B70363E6C7006394C7026370DB02A9
:1046900013151B00B3356501B385B5011388E8FF19
:1046A000B385B700130B05006394C50063846601EE
:1046B000136818009387FA3F635EF00E1377780053
:1046C000630007021377F80093064000630AD700DF
:1046D0003307D800B33607013304D40013080700AA
:1046E00013177400635A0700B70700FF9387F7FF9B
:1046F0003374F40093870A401307E07F6340F71890
:104700001317D401135838003368070113543400C9
:104710001314C4001354C400939747018320C104A9
:10472000B3E7870003248104131AFA0133E7470132
:1047300083244104032901048329C103032A81033B
:10474000832A4103032B0103832BC102032C810223
:10475000832C4102032D0102832DC10113050800A2
:10476000930507001301010567800000938AFAFF93
:10477000930C00006FF09FB6130A0C00938C060098
:1047800093072000638CFC0E93073000638EFC0CB3
:1047900093071000E390FCF21304000013080000DC
:1047A0006F00C008130A0B0013840B001388040069
:1047B0006FF01FFD93061000638C0700B386F64070
:1047C00013078003E34AD7FC1307F0016344D706BD
:1047D000938AEA41B357D80033185801333800019F
:1047E000B31A540133685801B3E707013354D400B6
:1047F00013F777006300070213F7F70093064000F2
:10480000630AD7003387D700B336F7003304D400E8
:104810009307070013178400634A07061318D4018F
:1048200093D737003368F80013543400930700001F
:104830006FF01FEE130710FEB307F74013060002D8
:10484000B357F400130700006386C600938AEA4357
:1048500033175401336707013337E000B3E7E7004C
:10486000130400006FF0DFF837040800130800009D
:104870009307F07F130A00006FF09FE91304000014
:10488000130800009307F07F6FF09FE81304000007
:1048900013080000930710006FF09FE713D745013E
:1048A000B70710009387F7FF13D8460113030500DD
:1048B000930E05001377F77F1305F07FB3F8B70069
:1048C000130F0600B3F7D70093D5F5011378F87FDF
:1048D00093D6F601631CA70033EE680013051000A1
:1048E00063140E006306E800678000006318A800E8
:1048F00033E6C70013051000E31806FE1305100089
:10490000E31407FFE392F8FEE390EEFF638AD5001D
:10491000E31C07FCB3E86800333510016780000032
:10492000130500006780000093D7460193D8450126
:10493000370710001307F7FF13080500130E0500D3
:1049400093F8F87F13F5F77F9307F07F3373B70081
:10495000930E06003377D70093D5F50193D6F60171
:104960006396F800336F030163160F066316F500B4
:10497000B367C700639007069307000063960800BB
:104980003368030193371800631A05043366C700C0
:10499000638A070063000606139516001305F5FFEA
:1049A00067800000631E0602B305B04013E51500E2
:1049B00067800000E3C2A8FEE36867FE6318E300B7
:1049C000E3E4CEFF130500006376DE0313951500C4
:1049D0006FF0DFFC1305E0FF67800000E39E07FA3D
:1049E000E394B6FCE35815FDB306D04013E516007A
:1049F000678000006780000093D7460193D8450187
:104A0000370710001307F7FF13080500130E050002
:104A100093F8F87F13F5F77F9307F07F3373B700B0
:104A2000930E06003377D70093D5F50193D6F601A0
:104A30006396F800336F030163160F066316F500E3
:104A4000B367C700639007069307000063960800EA
:104A50003368030193371800631A05043366C700EF
:104A6000638A070063000606139516001305F5FF19
:104A700067800000631E0602B305B04013E5150011
:104A800067800000E3C2A8FEE36867FE6318E300E6
:104A9000E3E4CEFF130500006376DE0313951500F3
:104AA0006FF0DFFC1305200067800000E39E07FA2B
:104AB000E394B6FCE35815FDB306D04013E51600A9
:104AC0006780000067800000130101FD2328610159
:104AD00013DB45012324810223229102232C41016F
:104AE000232A5101232481019394C5002326110216
:104AF00023202103232E310123267101232291013A
:104B0000137BFB7F13040500130C0600138A0600B9
:104B100093D4C40093DAF50163020B0C9307F07F82
:104B20006308FB12939434009357D501B3E79700C1
:104B3000B7048000B3E49700931B3500130B1BC030
:104B4000930C000093564A011314CA0093F6F67FA3
:104B50001354C400135AFA01638406129307F07FBA
:104B6000638CF618131434009357DC01B3E7870005
:104B70003704800033E48700938616C093173C0007
:104B80001306000013972C00330BDB003367C700BC
:104B90009306A00093081B0063CAE61A9305200041
:104BA00033C84A019306100063C0E5181307F7FFE6
:104BB00063EEE61A930C0600130720006388EC5E90
:104BC00013073000638EEC5C13071000639CEC4409
:104BD00013040000930600006F00C057B3EBA4005D
:104BE00063820B086382040413850400972000008D
:104BF000E78000DC130755FF9307D001930685FF7C
:104C0000B387E740B394D400B357F400B3E79700F9
:104C1000B314D400130BD0C0938B0400330BAB4000
:104C2000938407006FF0DFF197200000E78040D801
:104C300093070500138757019306C001130505026A
:104C4000E3DCE6FA938787FFB317F4006FF09FFC6D
:104C5000B3EBA40063900B0293040000930C2000BC
:104C60006FF05FEE93040000130B0000930C100034
:104C70006FF05FED930B0500930C30006FF09FEC2D
:104C8000B367840163840708630204041305040006
:104C900097200000E780C0D1930655FF1307D0018D
:104CA000930785FF3307D7403314F4003357EC00E4
:104CB000336787003314FC009306D0C093070400C9
:104CC000B386A640130407006FF09FEB13050C009A
:104CD00097200000E780C0CD930705009386570119
:104CE0001307C00113050502E35AD7FA938787FF1C
:104CF0003317FC006FF05FFCB36784016390070219
:104D000013040000130620006FF0DFE71304000017
:104D100093060000130610006FF0DFE693070C0007
:104D2000130630006FF01FE63397E60093760753C3
:104D30006398060293750724639C054413778708DC
:104D40006306070213080A006FF0DFE69306F0001F
:104D50006308D7449306B00013880A00E304D7FE23
:104D60001384040093870B006FF01FE513D70B012A
:104D700093930701939B0B0193DB0B0193D30301E7
:104D800013DE070113850B009385030097200000B5
:104D9000E78080B49307050093050E0013850B0090
:104DA00097200000E78040B3930E05009385030031
:104DB0001305070097200000E78000B2130F0500DD
:104DC00093050E001305070097200000E780C0B090
:104DD00013D30701B38EEE013303D3019302050011
:104DE0006376E301B7060100B302D500135F040147
:104DF0009397070113140401135A030193D7070172
:104E000013540401131303013303F30013850B0040
:104E10009305040097200000E78000AC930F050085
:104E200093050F0013850B0097200000E780C0AAB0
:104E3000930E05009305040013050700972000005A
:104E4000E78080A9930A050093050F00130507006A
:104E500097200000E78040A813D70F01B38E5E01B2
:104E60003307D7019307050063765701B7060100A2
:104E7000B307D500935E0701939F0F01B38EFE0029
:104E800093DF0F0193170701B387F7013307FA0088
:104E900013DA04019394040193D4040113850400EC
:104EA0009385030097200000E78000A3930F05007F
:104EB00093050E001385040097200000E780C0A131
:104EC000930A05009385030013050A00972000004C
:104ED000E78080A09303050093050E0013050A00E8
:104EE00097200000E780409F93D50F01B38A7A0096
:104EF000B38555019306050063F67500370601007A
:104F0000B306C500939F0F0113DE050193DF0F0168
:104F100093950501B38FF501330EDE001385040070
:104F20009305040097200000E780009B9303050091
:104F300093050F001385040097200000E780C099B7
:104F4000930405009305040013050A009720000050
:104F5000E78080981304050093050F0013050A00ED
:104F600097200000E780409793D50301B384840025
:104F7000B3859500130F050063F68500B7060100A1
:104F8000330FD50093930301B386E20093D303015B
:104F90001397050133077700B30ED701B3B7F600B7
:104FA000B387FE0033B6EE00B3BED70193D505013B
:104FB0003366D6013306B600B385F601338EC701DA
:104FC000B3B6D500B306DE003337FE0033BEC601EC
:104FD000939795003367C7013307C700B3E76700AE
:104FE0003307E701B337F00093D575011317970026
:104FF00013D47601B3E7B70093969600B3E7D700D2
:10500000931677003364870063D6060C13D7170016
:1050100093F717003367F7009317F401B367F700AE
:10502000135414001387F83F635AE00A93F677008D
:105030006380060293F6F70013064000638AC600F9
:10504000B386C70033B6F6003304C4009387060066
:105050009316740063DA0600370700FF1307F7FFA3
:105060003374E400138708409306E07F63C0E614BE
:105070009316D40193D73700B3E6F60013543400E7
:105080001314C4001354C400131747018320C10232
:1050900033678700032481021318F801B3670701FF
:1050A00083244102032901028329C101032A8101CA
:1050B000832A4101032B0101832BC100032C8100B2
:1050C000832C41001385060093850700130101031B
:1050D0006780000093080B006FF0DFF413061000E8
:1050E000630C07003306E64093068003E3C2C6AEB6
:1050F0009306F00163C4C6069388E84133D7C7001E
:10510000B3971701B337F000B3181401B3E71701D1
:10511000B367F7003354C40013F777006300070246
:1051200013F7F70093064000630AD7003387D700D0
:10513000B336F7003304D400930707001317840035
:10514000634E07069316D40193D73700B3E6F600F3
:1051500013543400130700006FF09FF2930610FE03
:105160003387E640930500023357E40093060000BE
:105170006306B6009388E843B3161401B3E6F6005D
:10518000B336D000B367D700130400006FF0DFF828
:10519000370408001307F07F130800006FF05FEE7C
:1051A00037040800930600006FF0DFFE13040000D0
:1051B000930600001307F07F6FF09FEC13040000CC
:1051C00093060000130710006FF09FEB37081000E4
:1051D0001308F8FF130101FEB378B80013D7450197
:1051E0009357D5013378D80023244101137AF77FF0
:1051F0001397380093D8460123263101B3E7E7001F
:1052000093D9F501131838009355D601232E1100B8
:10521000232C8100232A91002328210123225101DC
:1052200093F8F87F1307F07F1315350093D6F60136
:10523000B3E50501131636006396E80033E7C500B1
:105240006314070093C6160033081A411303F07F56
:1052500063963633635E00176398080A33E7C50028
:10526000630607021308FAFF631008023306C5003D
:105270003337A600B386B70013050600B387E600F0
:10528000130A10006F00400D63166A089396D70149
:10529000135535001307F07FB3E6A60093D7370008
:1052A000631EEA00B3E6F600930700006388060079
:1052B000B7070800930600009309000013174A017E
:1052C0003706F07F9397C7003377C7008320C1016B
:1052D0000324810193D7C700B367F7001397F9013F
:1052E00033E6E70083244101032901018329C1003A
:1052F000032A8100832A41001385060093050600D6
:105300001301010267800000E3026AF8370780009A
:10531000B3E5E500130780036346070B1307F001AD
:105320009308000263480707B388084133971501C3
:10533000B3560601B31816013367D700B33810010E
:105340003367170133D805013305A7003308F80088
:105350003337E500B307E80013978700635C071C49
:10536000130A1A001307F07F6306EA5C370780FF11
:105370001307F7FFB3F7E700135715001375150070
:105380003367A7001395F7013365E50093D717003E
:105390006F00401A130708FE33D7E500930600009C
:1053A0006308180193060004B3860641B396D5003E
:1053B000B3E6C600B336D0003367D7001308000049
:1053C0006FF09FF833E7C5003337E0006FF01FFF41
:1053D0006306080C3387484163140A02B3E6A7004A
:1053E000638806009306F7FFE38206E8631267020C
:1053F0009387050013050600130A07006FF01FE9E5
:1054000063806854B7068000B3E7D70093060700AF
:1054100013078003634ED7061307F001130300023E
:105420006340D7043303D340339767003358D50024
:105430003313650033670701333360003367670058
:10544000B3D6D7003306C700B386B6003337E600BD
:1054500013050600B387E600138A08006FF0DFEF3C
:10546000138706FE33D7E700130800006388660041
:10547000130800043308D840339807013368A800A4
:105480003338000133670701930600006FF09FFB7C
:1054900033E7A7003337E0006FF01FFF13071A0050
:1054A0009376E77F6394060633E7A70063100A0448
:1054B0006300072C33E7C500630E07443306C500BD
:1054C000B386B7003335A600B385A6009397850051
:1054D00063D0072AB70780FF9387F7FFB3F7F5007C
:1054E00013050600130A10006FF05FDA630A074223
:1054F00033E6C500130A0300E30A06D89309000047
:10550000B7074000130500006FF05FD863026742E1
:105510003306C5003335A600B386B700B386A600B0
:105520001395F601135616003365C50093D7160080
:10553000130A070013777500630007021377F5005D
:1055400093064000630AD7003307D500B336A7009F
:10555000B387D7001305070013978700E35807D2D6
:10556000130A1A001307F07F6306EA3C370780FF2F
:105570001307F7FFB3F7E7006FF05FD16354000F35
:10558000639C080833E7C500E30207D01308FAFF5D
:10559000631008023306C5403337C500B386B740F1
:1055A00013050600B387E640130A10006F000005DC
:1055B000E30E6ACC130780036340070B1307F00167
:1055C0009308000263420707B38808413397150127
:1055D000B3560601B31816013367D700B33810016C
:1055E0003367170133D805013307E540B336E500CB
:1055F0003388074113050700B307D8401397870086
:10560000E35A07F2370980001309F9FF33F927013C
:10561000930A05006F004021E30A6AC6370780003D
:10562000B3E5E5006FF01FF9130708FE33D7E50077
:10563000930600006308180193060004B386064130
:10564000B396D500B3E6C600B336D0003367D700B3
:10565000130800006FF05FF933E7C5003337E0004F
:105660006FF01FFF6304080E3388484163120A0479
:1056700033E7A700630407021307F8FF631E070060
:105680003305A640B385F5403336A600B387C54041
:10569000938906006FF05FF1631468029389060036
:1056A0009387050013050600130A08006FF01FBE5C
:1056B0006386682837078000B3E7E7001307080010
:1056C00013088003634EE8061308F001130E00026E
:1056D0006340E804330EEE403353E5003398C701CE
:1056E000331EC50133686800333EC0013365C8010D
:1056F00033D7E7003305A6403387E5403336A600AD
:10570000B307C740138A0800938906006FF01FEFA4
:10571000130807FE33D80701130300006308C7010D
:10572000130300043303E340339367003363A300A0
:105730003333600033656800130700006FF09FFB90
:1057400033E5A7003335A0006FF01FFF13071A00E1
:105750001377E77F6312070A33E7C50033E8A70032
:1057600063180A06631208026304071E9389060081
:105770003365B60063040512938705001305060020
:10578000130A00006FF01FDB630607183308C540DB
:10579000B33805013387B7403307174193188700A3
:1057A00063DE08003305A6403337A600B385F54015
:1057B00013060500B385E5406FF05FFB3365E80035
:1057C000630C051893050700130608006FF05FFAD5
:1057D000631E0800938906006314071493090000F0
:1057E000B7074000130500006F000014130A030000
:1057F000E30E07A86FF09FD03307C5403338E500AC
:105800003389B7403309094113188900930A070007
:1058100063500808B30AA6403389F5403336560171
:105820003309C9409389060063000908130509007C
:1058300097100000E780C017130685FF930600024B
:10584000B386C6403319C900B3D6DA00B3E62601E1
:105850003399CA006344460B33064641930516004C
:105860009307F0011307000263C2B7063307B7407E
:105870003396E600B357B9003317E9003366F600F4
:105880003337E0003366E600B3D5B6006FF05FEE65
:1058900033652701E31A05F8930900009307000018
:1058A000130A00006FF09F9E13850A0097100000F6
:1058B000E7800010130685019307F001E3D0C7F8D5
:1058C000930685FFB396DA006FF0DFF8130616FE35
:1058D00033D6C600930700006388E50093070004F1
:1058E000B387B740B397F600B367F900B337F0005A
:1058F0003366F600930500006FF09FE7B70780FF5F
:105900009387F7FF330ACA40B3F7F600130509007F
:105910006FF05FC293850700130605006FF05FE527
:105920009387050013050600130A03006FF01F9606
:10593000130A0700930700006FF0DFBC938906008D
:105940009387050013050600138A08006FF01F9463
:10595000930900006FF01FFE9309000093070000F9
:105960006FF0DF9213D74501B70610009387F6FF5B
:105970001377F77F1306E03FB3F7B70093D5F50130
:10598000635EE6041306D041635AE60037050080E3
:105990001305F5FF3385A50067800000B3E7D70046
:1059A00093063043B386E6401306F0016340D60207
:1059B0001307D7BEB397E7003355D50033E5A700EB
:1059C000638005023305A0406780000093063041E4
:1059D0003387E64033D5E7006FF09FFE13050000E4
:1059E0006780000013D74501370810009307F8FFC0
:1059F0001377F77F1306E03FB3F7B7009306050070
:105A000093D5F501635AE6041306F0413306B64018
:105A10001385F5FF6354C704130500006390050464
:105A2000130630433306E6409305F001B3E7070160
:105A300063CCC5001307D7BEB397E70033D5C600C4
:105A400033E5A70067800000930630413387E640C6
:105A500033D5E70067800000130500006780000071
:105A6000130101FE232E1100232C8100232A910013
:105A70002328210123263101930705006308050827
:105A80001357F5413349A7003309E9409359F5010C
:105A90001305090097100000E78080F19307E041AB
:105AA0001307A000B387A740634AA7041307B000F9
:105AB0003307A740130555013357E9003319A900EF
:105AC0001317C7008320C101032481011357C700A6
:105AD000939747019399F901B3E7E70033E737015B
